:20000000E83F0020BD45000001CA011001CA011001CA011001CA011001CA011001CA01106F
:1C00200001CA011001CA011001CA011001CA011001CA011001CA01103FCA011082
:20003C003EB52F4C05462078854258D0062D4FD006283BD0022802D1A078042D1BD0012D7A
:20005C004CD14FF44170694601F0CEFD9DF805008DF807009DF804308DF8063000218DF8B8
:20007C0004109DF803208DF803108DF80520684606F032F932E0012815D0082004F016FC39
:20009C0020282BD108204FF4C86104F0B7FE09204FF4C86104F0B2FE0020014604F0AEFE83
:2000BC0004F0CAFF1AE00020A07017E004F1800006F09FFA052DE5D10820202104F09EFE61
:2000DC000920202104F09AFE002047F23051E5E704F10A0140F20E3001F086FD25703EBDF4
:0400FC00F8180020D0
:200100003C000000000000000000000034010000000000000000000001000000000000006D
:1C01200000000000000000000000000001000000000000000800000000000000BA
:20013C00340000000000000000000000680100000000000000000000010000000000000005
:14015C00010000000000000000000000080000000000000086
:2001700030000000000000000000000098010000040000000000000001000000FFFFFFFFA5
:10019000FF00000001000000080000000000000057
:2001A0002C0000000000000000000000C4010000040000000000000001000000FFFFFFFF4D
:0C01C000FFFFFFFF08000000000000002F
:2001CC0034050000E401000099A1011095A70110A5C2011009B2011045B80110000000000B
:0801EC00000000002E000000DD
:2001F400280000000000000000000000140200000000000000000000FFFFFFFF00000000B1
:080214000800000000000000DA
:20021C00300500003002000069C201106DC101101FC2011095BA011000000000000000008E
:04023C00300000008E
:20024000300500005402000075C20110A9B601109DBF011049B601100000000000000000DE
:040260003100000069
:200264002400000000000000000000008002000000000000000000000000000008000000CC
:040284000000000076
:20028800240000000000000000000000A40200000000000000000000000000000800000084
:0402A8000000000052
:2002AC00240000000000000000000000C8020000000000000100000000000000080000003B
:0402CC00000000002E
:2002D000000000000C220020040000000000000000000000200000007001000030000000FB
:2002F0001C020000202200200400000000000000000000000C000000300400001800000012
:20031000400200002C22002004000000000000000000000024000000480400001800000091
:20033000000000003422002004000000000000000000000010000000A00100002C00000056
:20035000CC0100003C22002004000000000000000000000020000000640200002400000094
:20037000FFFFFFFF5C220020040000000000000000000000280000008802000024000000F9
:20039000FFFFFFFF6C220020040000000000000000000000580000003C01000034000000D6
:2003B000FFFFFFFF74220020040000000000000000000000100000006004000018000000EB
:2003D000FFFFFFFF7C2200200400000000000000000000001C000000AC0200002400000061
:2003F000FFFFFFFF8422002004000000000000000000000038000000F401000028000000D2
:20041000FFFFFFFF8C22002004000000000000000000000054000000000100003C0000006D
:1804300018000000000000000000000040040000080000000000000050
:1804480018000000000000000000000058040000080000000000000020
:18046000180000000000000000000000700400000800000000000000F0
:0804780001000000CC6A000045
:0404800006F097B833
:040484000100000073
:0404880000000C0064
:04048C0000000D005F
:040490003200000036
:040494000200000062
:040498009826002082
:04049C00000200005A
:0404A0000000000058
:0404A40001CA011078
:0404A8000000000050
:0404AC00000000004C
:0404B0000800000040
:0404B4000000200024
:0404B800602600209A
:0404BC00010000003B
:0404C00044220020B2
:0404C400080000002C
:0404C8000000000030
:0404CC00000000002C
:0404D0000000000028
:0404D4000000000024
:0404D8000000000020
:0404DC00010000001B
:0404E000F8260020DA
:0404E400060000000E
:0404E800010000000F
:0404EC00CC250020FB
:0404F0000000000008
:0404F4000000000004
:0404F80000020000FE
:0404FC0000000000FC
:02050000704742
:020502002A00CD
:020504000100F4
:020506002500CE
:020508003000C1
:02050A003100BE
:02050C002E00BF
:02050E000100EA
:0105100001E9
:08051400030000008C6A0000E6
:08051C000000000000000000D7
:0405240000000100D2
:0405280000000300CC
:04052C0087C401106F
:04053000380500008A
:040534003805000086
:0405380000000000BF
:04053C00800000003B
:040540008000000037
:0405440000000000B3
:040548004422002029
:04054C00E162000068
:040550002000000087
:04055400486A0000F1
:0405580074690000C2
:04055C000DC30110BA
:04056000E33600007E
:04056400CB37000091
:0405680099C801101D
:04056C009BC8011017
:040570000000000087
:04057400AA6A00006F
:0405780018690000FE
:04057C0030690000E2
:04058000006900000E
:0205840008006D
:0205860009006A
:02058800010070
:02058A0000006F
:01058C00016D
:040590000000000067
:040594000000000063
:04059800000000005F
:04059C00000000005B
:0405A0006561000091
:0405A4004D480000BE
:0405A80019590000DD
:0405AC0045460000C0
:0405B000CD3B00003F
:0405B400A14C000056
:0405B8005D330000AF
:0405BC00955C00004A
:0405C0002D3C0000CE
:0405C40011C8011049
:0405C80021C8011035
:0405CC000800000023
:0405D0002400000003
:0405D400180000000B
:0405D80028000000F7
:0405DC0020000000FB
:0405E0003C000000DB
:0405E4000C00000007
:0405E80034000000DB
:2005EC002DE9F84F054640F29421012441F22D00C4F22231C4F2090040F81D4C086810B939
:20060C0008680028FAD046F2000043F6B477C021C4F20C00C5F2000701603E6857F8040C09
:20062C0046F25622C4F20802800806D257F8080C000C40F0F000107001E07220107041F2A9
:20064C00B820C5F200000068C0F3046005F0CEFE39680B171B185B1C13F10A0FB8BF6FF05F
:20066C0009034FF0000CF10EB00E03F01F0381F00101C4F2203C80F0010043F4F85301F0DC
:20068C000101138300F00100CCF800103146CCF80800284601F054FD814605F019FF002109
:2006AC00002808BF211C48F20008C4F20C08D8F8000018B9D8F800000028F8D04AF2080A47
:2006CC00C4F20C0ACAF81090C8F8004009B105F005FF284605F048FA40F2FF32002380B2D0
:2006EC002C2100904AF20000C4F20C0003F0C6FA284605F041FC814605F0EAFE00210028D3
:20070C0008BF211CD8F8000018B9D8F800000028F8D0CAF81490C8F8004009B105F0DEFE77
:20072C00284605F02BF8814605F0D2FE0021002808BF211CD8F8000018B9D8F800000028B5
:20074C00F8D0CAF80C90C8F8004009B105F0C6FE284605F0A5F9814605F0BAFE0021002836
:20076C0008BF211CD8F8000018B9D8F800000028F8D0CAF80890C8F8004009B105F0AEFE53
:20078C00284602F029FE814605F0A2FE0021002808BF211CD8F8000018B9D8F80000002884
:2007AC00F8D0CAF80490C8F8004009B105F096FE284605F0B1FB4AF24009C4F20C0940002D
:2007CC0040F0200089F80901284605F0B1FB40F0100089F80901284605F0D6F9834605F068
:2007EC0077FE0021002808BF211CD8F8000018B9D8F800000028F8D0CAF820B0C8F8004038
:20080C0009B105F06BFE284605F09EFB400040F0600089F80C01284605F0A2FBC00040F06A
:20082C00800089F80101284605F0B2FB800040F47C40A9F89C01284604F0A6FD834605F028
:20084C0047FE0021002808BF211CD8F8000018B9D8F800000028F8D0CAF800B0C8F8004027
:20086C0009B105F03BFE442089F8C5004FF0880E89F8C7E0284605F087FC40F03001C6F3DD
:20088C00815089F8C81078B3401E06D0401E26D00420022103F049FB30E0204605F04AF844
:2008AC0005460420294603F040FB042005F042F88542FAD157F80C5C25F07F4004F05CFB65
:2008CC0040F2B410C1F200000068036807214FF06022280E98474FF48060C9F8000004208A
:2008EC00032103F022FB09E00420214603F01DFB43F2BD70C0F2860004F03EFB41F2B82067
:20090C00C5F20000D0F8B4004BF2700242F22C0E46F2000B47F618014FF0000C41F22D0A2D
:20092C00C4F20C02C4F2090E40F2944800F03F0089F8CB0FC4F20C0B1180DEF80000CBF88B
:20094C0000C0C4F2090A4AF81DCCC4F26028C8F80040BDE8F88F70472DE9F84FC64DC74E31
:20096C00D5F8EF1FCC4C7368D5F8F30F8843C5F8F30F002BC5F8FF1F00F011817788012B91
:20098C0000F0D680DFF8FCB2BF4FDFF800A3DFF80093DFF80083022B72D0032B40F06A817C
:2009AC000024B06855F8312C74600028A2F5C062B8BF404211460029B8BF494288422EDA43
:2009CC00111C54BF02206FF00100B26900EB4100032190FBF1F18918B161F36870699842B0
:2009EC000BD0B1F11002B8BF524230691038B8BF40428242B8BF88B209DB98B20090A0485C
:200A0C0030214FF47F42082303F038F9308A00909B4804214FF4F802122303F02FF95846A9
:200A2C00046001688908FCD20460012644600E203E6001F01BFF50460468EFF3118584F387
:200A4C00118849460820B0FA80F00A1AD07F431E0128D37704D14246106820F0080010607C
:200A6C0085F31188EFF3118384F311880420B0FA80F0091AC87F421E0128CA7754D14EE00E
:200A8C0055F8310CB0F5C06F17D00327776001F059FA45F8397C0027276020688008FCD242
:200AAC007748394660220523009103F0E7F80126266020688008FCD364E00021716058467F
:200ACC00016002689208FCD20160012641600E203E6001F0CBFE50460468EFF3118584F337
:200AEC00118849460820B0FA80F00A1AD07F431E0128D37704D14246106820F008001060DC
:200B0C0085F31188EFF3118384F311880420B0FA80F0091AC87F421E0128CA7704D1424663
:200B2C00106820F00400106083F31188BDE8F88F55F8312C02214BF2F52071605043000AE5
:200B4C0037B95649096821F07F414018400801E0002171806060000CA0600126E6600327C2
:200B6C0045F8397C0027276020688008FCD24448394660220523009103F080F8266020682C
:200B8C008008FCD345F8216C45F8397C0820C5F8FF0FC5F8F30F45F8396CBDE8F88F4048EE
:200BAC000068006801462020884741F61D574FF002080F2045F82D0C00214FF4C0720723AA
:200BCC0045F8297C2E48CDF8008003F057F8012744F8047C54F8040C8008FBD3308845F89F
:200BEC001D7C012821D0032045F8390C4FF00009C4F8009020688008FCD2214849466022A5
:200C0C000523009103F03AF8276020688008FCD345F8217C45F8399C0820C5F8FF0FC5F8E8
:200C2C00F30F45F8397C474623E04FF00009C4F80C90032045F8390CC4F800902068800883
:200C4C00FCD20F48CDF8008049466022052303F015F8276020688008FCD3202045F8210CD5
:200C6C0045F8399C0824C5F8FF4FC5F8F34F45F8397C7760BDE8F88F39400C40942700208B
:200C8C0000A00C4034600C4004800C40C46A0000F3210020B424002038600C4010200940F5
:200CAC00A00100102DE9F04F5FEA0009ADF11C0D00F05581AC480068EFF3118280F3118866
:200CCC00DFF8C8B29BF80400012818BF012003D1022100208BF8041082F31188012800F02A
:200CEC003C8105F07FFD0390A948046804EB0B0005F074FD4FF00008464637460BEB04011F
:200D0C00CDF810800191B0B90C46084605F062FD0546A868400808D3E868296902460120BA
:200D2C009047C0B2002840F01081284605F04EFD0546AC42EDD1002F40F00B8105F042FDB1
:200D4C000290059789480760012004F0F3FD012804D1404603F034FD4FF00108844F3868B9
:200D6C008068014630468847864819300090D0F8FF0FB9F1000F00F08C80864C0A34E57953
:200D8C0005B10126A5790DB146F0020665790DB146F00406DFF8DC9165782DB1B86A006BE8
:200DAC0049460246C88D904725782DB1B86A006B49460246488D90476F4901200860B86A36
:200DCC008069014646F0200088476C4DDBF80010286840F001002860480813D2684805F0F3
:200DEC00FEFA8246BAF1040FF8D0D5F8180220F00300C5F81802B86C4068024660480321F0
:200E0C00904701E001200490059800F0E5FBB86A0099806BD1F8FF1F8047049858B9B86CC7
:200E2C0040680246564851469047D5F8180240F00300C5F8180238688068014601208847FA
:200E4C00504801688909FCD3B8F1010F02D1012003F0B6FCB86A4069014630468847B86A59
:200E6C00406B0146304688470128F8D166782EB1B86AC06A49460246C88D904726782EB1B4
:200E8C00B86AC06A49460246488D90473A49012008603A480168032221F00101016001984E
:200EAC008BF8042005F09AFC0028059818BF01200125C0B9019C204605F08CFC0646B068B4
:200ECC00C00806D3F0683169024604209047C0B230B9304605F07AFC0646B442EFD102E010
:200EEC002948006880472148009F0560D7F8FF0F05F0F4FA019805F071FC059FC8B9019C5C
:200F0C00204605F067FC0646B068000906D3F0683169024608209047C0B230B9304605F0C2
:200F2C0055FC0646B442EFD103E0174800688047022702988BF8045005F040FC02F07FFDA8
:200F4C00039805F037FC38460AE00F4800688047022701208BF80400F2E7062000E0022002
:200F6C0007B0BDE8F08FC046C46A00000C40094090010010B4680000282008600C200840E0
:200F8C000040034014100940B86A0000B4240020B46A0000E02100202DE9F0410446DFF894
:200FAC001C82A2780026101C00F0D780801E00F0B180401E012840F28780801E52D0401E37
:200FCC0026D0401E03D0083800F0EA80EBE0454605F1F00005F015FB6078002840F0E38070
:200FEC00E0882884208968846089A88405F1CC0005F0C2F9002840F0D6806B6B002B00F016
:20100C00D2801B68288C698CAA8C9847BDE8F081A08804F0A2FC45463146062205F14400FD
:20102C0002F020FB2E846E84AE84A079687305F1CC0005F0E6FA05F1F00005F0E2FA012658
:20104C004FF6FF702F79E8824FB9A079082814BF042005206870304605F042F8A3E003202E
:20106C006870A0E045466778EA7A2FBB211D0B6805F1440003608988818006276F706089FF
:20108C00E882E0892884208A6884608AA884E078012A28730AD11F2003F010FC4FF47A71B4
:2010AC00024605F1CC00514303F068FDE0786289211D03F00FFD78E06078312818BF082026
:2010CC001CD1EE70042019E06778002F63D14546A98A6878032A13D0EA782F7921B9012A9D
:2010EC0014BF2E71EE7006E0174304D005F1A80003F044FD68780728E4D10620687054E038
:20110C00062805D0E87800280CBF03200220F5E70720F3E76078651C00283CD14046E778D8
:20112C0081798FB94178022914D0072912D0062902D1017901290DD1A83005F01DF948B91F
:20114C00012004F0CDFF05E000F18902304602F065FF28702878F0B925E06078D8B945469B
:20116C000220102105F14A0203F03AFF0320102105F15A0203F034FFE41C05F13800A78879
:20118C002168878005F16A02016001206979687002F044FF48B1454608206D1C287004E02F
:2011AC00A08805F053F9012E06D14546286B18B1016809B168788847BDE8F081941C002015
:2011CC00F8B5A0F2013517460E46022D40F205818249834A2D1F0F2D04D9143D4AD0AD1EC3
:2011EC001CD011E0DFE815F0B500B000E600D600A900A200F9009A009300100010008C00FC
:20120C00820077006D006000272880F2E680022E40F0E380398803F0F9FDF8BD012E40F054
:20122C00DC800A469078012800F0D780D1783878D07081B9002800F0D0801078012800F002
:20124C009B80042800F09880062800F09580052800F09280F8BD3878002840F0BE8010784E
:20126C00032800F09480072800F09180052800F08E80F8BD012E40F0B0803878012840F08B
:20128C00AC80154605F1F00005F076F8002840F0A480002002F094FA002840F09E80284672
:2012AC00CC3005F0AEF9F8BD022E40F0968038880A28C0F29280B0F5486F00F38E801D31FE
:2012CC0012E0022E40F089803888B0F5FA7F80F284801B3108E0022E7FD1388806287CDB5A
:2012EC00B0F5486F79DC19310880F8BD022E74D13888062871DBB0F5486F6EDC1731F3E733
:20130C00012E6AD13878022867DA0A310CE0012E63D13878042860DA093105E0012E5CD121
:20132C003878082859DA08310870F8BD012E54D13878042851DAC91DF6E7012E4DD138780D
:20134C0004284ADC891DEFE7022E46D138881331CAE7012E41D10A46D07801283DD091789F
:20136C003878907061B9002837D01078012803D0042818BF052830D1012004F0B1FEF8BD3A
:20138C00387850BB1078022818BF052825D104F0B3FFF8BD154605F1890400211F222046D9
:2013AC0002F060F939463246204601F021FE0020AE710EE0154605F16A0400211F222046B5
:2013CC0002F050F939463246204601F011FE01206E713146224602F021FEF8BD951C0020F3
:2013EC00941C00202DE9F0411C4615468C4208BF854282BF00230022E5E0002C08BF002D46
:20140C000AD100290EBF00286FF000006FF0000100F0E1F8BDE8F0815FF000085FF0000E75
:20142C00002C08BF8D429CBF2C1C0025070C47EA01470E0CB44208BFBD429EBF5FEA0444C6
:20144C0044EA15445FEA0545070A47EA01670E0AB44208BFBD429EBF5FEA042444EA156473
:20146C005FEA0525470847EAC1774E08B44208BFBD4200F29380870847EA81778E08B442DA
:20148C0008BFBD427CD8C70847EA4177CE08B44208BFBD4266D8070947EA01770E09B442D8
:2014AC0008BFBD4250D8470947EAC1674E09B44208BFBD423AD8870947EA81678E09B4422E
:2014CC0008BFBD4224D8C70947EA4167CE09B44208BFBD420DD8E60146EA5566EF01B14268
:2014EC0008BFB84201D3C01BB14158EB08085EEB0E0EA60146EA95664FEA8517B14208BF65
:20150C00B84201D3C01BB14158EB08084EEB0E0E660146EAD5666F01B14208BFB84201D3B2
:20152C00C01BB14158EB08084EEB0E0E260146EA15762F01B14208BFB84201D3C01BB141C3
:20154C0058EB08085EEB0E0EE60046EA5576EF00B14208BFB84201D3C01BB14158EB08084F
:20156C004EEB0E0EA60046EA9576AF00B14208BFB84201D3C01BB14158EB08084EEB0E0E7D
:20158C00660046EAD5766F00B14208BFB84201D3C01BB14158EB08085EEB0E0EA14208BF38
:2015AC00A84201D3401BA14158EB08085EEB0E0EA34208BFAA423EBF2D0A45EA0465240ADA
:2015CC0089D3734642461E4617460B46024631463846BDE8F0817047F8B507460020C4F276
:2015EC0009000068800880F0C98003F06EFF42F22421C4F208010A68002112F0030F18BF17
:20160C000121D20828BF41F00201002F18BF41F0040141F6E806C2F2000696F90720821A3A
:20162C00052A04DAB2798A4208BFB28870D041F29C340F28A0F10F02C5F2000425DB02EBD5
:20164C0002121712072F88BF0727BC46BCF1060F88BF4FF0060C54F82CE00423254603EB62
:20166C008C03EB58CD08A3EB0E0303F0FF0C24BFC3F30725AC448D0824BFC3F30745AC44FB
:20168C004D0805D30CEB136C02E04FF0000C674654F82730CC0803F0FF0524BFC3F307248F
:2016AC0025448C0824BFC3F3074425444C0828BF05EB1365A2EB07221FFA8CF3534380339A
:2016CC000022082B88BF012243F6B473C5F200031C681B684FF4D07C34275219241703F09B
:2016EC00FF0307FB14C45C434FF6FF73B4FBF2F2934238BF1A1C802892B2B28005DA10F119
:20170C00800F03DA6FF07F0000E07F20F071B17142F20800C4F2090001681F2A4FF0000085
:20172C00316015D340F2FF13934213D219465208401C93420ED25208401C93420AD252089B
:20174C00401C914206D25208401C9142EFD301E01F22B2800F3A4FF600714FF0350E12093B
:20176C00C8F2A401C4F2090E40EAC2000143CEF8FB1F4FF0000CCEF8FFCFF8BD41F6EE0266
:20178C004FF6FD50082141F2300EC2F20002C0F2A4001170C4F2090ECEF80000F8BDFEE757
:2017AC0070B5ADF1200D03F0B1F9634C0025203CE56404F1480684F850503046357004F0A9
:2017CC00B3FD2846314604F0FBFB606104F03AF804F07AFC32220223564EE06104F180005A
:2017EC00314602F00FFE43F69822082304F1A400314602F007FE00F0CFFFC820ADF80600F1
:20180C002E468DF800504FF4C860ADF802606A468DF804600125ADF808004FF47A70ADF8C3
:20182C000A502946ADF80C0040F20530FFF7C8FC40F2063002210DF10202FFF7C1FC4FF47E
:20184C004270132104F15802FFF7BAFC04F1300240F207300921FFF7B3FC4FF444702946D6
:20186C0001AAFFF7ADFC40F2113002210DF10602FFF7A6FC40F21230022102AAFFF7A0FC09
:20188C0040F2133002210DF10A02FFF799FC4FF44570022103AAFFF793FC04F0E3FD049654
:2018AC008DF814508DF815608DF816608DF817504FF48160042104AA03F08EFA4FF48060BD
:2018CC00294605AA03F088FA40F2024029460DF1150203F081FA40F2034029460DF1160209
:2018EC0003F07AFA40F2064029460DF1170203F073FA04F046FEFEF7BDFD03F053FF04F0F7
:20190C008FFC03F0FFFE02208DF8180006A804F0AFFD06208DF819000DF1190004F0C0FAAA
:20192C0004F0FAFC04F068FC04F0D2FA03F0FEFE08B070BDB55F0000181900202DE9F04F0B
:20194C00ADF15C0D03F02EFA0027012804D104F0B3FA022808BF012751490868C0F38150EC
:20196C00012806D151F80C0C0126010E06FA01F007434C484C4E00783068C0F3460603F059
:20198C0011FA012808BF761C484C26603EB1FF2204F140013046401E01F8012BFBD1DFF8B2
:2019AC001091D9F800004FF0000800F0FF01FF2918D04D4600F0FF03414601229E426CD90E
:2019CC0002FA03F31F4268D100F0FF00201880F8401055F8040F43EA0808491C00F0FF038C
:2019EC00FF2BEBD1092000F06BFEC4F8049001A800212422082304F0D9FE4FF0010A04F1DE
:201A0C00240001AA8DF81CA0514604F0CBFE236833B300262546B34660350AFA06F0074283
:201A2C0018D118EA000F04BF06F0FF0141F4C04104D0A01990F8400059F820101D4801F085
:201A4C0039F8F0B24FF0FF3104F0BEF92368C5F800B001E004202860761C2D1D9E42DCD39D
:201A6C000AA800213022082304F098FE002010210AAB114A009004F1080004F08BFE0F49BD
:201A8C0051F80D0C20F4F85040F4005041F80D0C5746C1F8FF7F0A4E376017B0BDE8F08FF8
:201AAC00B43F0050F6180020801208408816002058270020007FC767C94300000D30094033
:201ACC000800094048482DE9F041016DB0F85820B0F85A30A1F50001120102EB211241F215
:201AEC006B11CB1802FB03F4B0F85C30DFF800C1B0F86250D0F84C80A3F5807353439B13FE
:201B0C0053431B1103EB6403B0F85E405443A4145443A41402FB04321413B0F86020733198
:201B2C00521A04FB02F1091404FB01F2016F45F27F23C91A614301EB6202C16E0901A1EB47
:201B4C0062312A4AA1EB020E426F44F61201491961430E13B0F864100CEB02036143491498
:201B6C0061430D13A91BB8BF4942CF12B542BFB2C1F30A0103FB07F703FB01F64FEAD621A6
:201B8C00DABF7B425B1ACB19B0F86A606146A8EB0E0702EBA3228918CA08A7F50001B0F85F
:201BAC0066704FF40015C910C2F3090392124B439B1201FB023104FB0652B0F868600D4D22
:201BCC000911D21002FB07F35B157243D2144B434A4392154A43A2EBA30201EBE2216A1809
:201BEC004265BDE8F081C0463C24002080D90500EB6A0800289A01002DE9F04F0C464649E2
:201C0C008A8BADF13C0D84460992487B0D90CE7800964A8B0892888C0C900A8B488C0792FA
:201C2C0091F80CE00B908E78CA7A088C0692CB8A0A908A7A91F804A005924A7AC88B0492AE
:201C4C000A7A91F801800392CA798D8A02928A79CF6A01924A79E146A9F54079B9F11D0F81
:201C6C0010D8DFE809F0554F4D4B49474543403D3B393634320F312F2D2B2A24211F1D0F4E
:201C8C001A191816BCF1270F43DA604602F016FE13E0DDF834E0F246D046CDF8148016E0B2
:201CAC000C980B900B980A900A98054620E04431086820608888A0802BE00990099808903D
:201CCC000898079007980690069B238021E0059804900498039001E03E31E9E7039802909A
:201CEC000298009006E0019A89310DE06A310BE02846E2E7009E0BE03831D9E7276008E0A8
:201D0C005A3100E04A311022204601F071F900E026700FB0BDE8F08F941C00202DE9F0416E
:201D2C0000211422ADF1180D684601F09BFC09276FF054046FF055056E46E8B202F0A0FDCA
:201D4C008046E0B202F09CFDAD1CA41C7F1E40EA082026F8020BF0D1D02002F091FD044676
:201D6C00F12002F08DFDBDF80070BDF80210BDF80450304B4FF6F87640EA042082B206EA35
:201D8C006114381105F00701A3F85800BDF80270BDF80800BDF80450214300F00104BDF88E
:201DAC000600A3F85A1007F0FF0144EA4104BDF80070ADF81220E910A3F85C4060F39F077D
:201DCC00BDF80850A3F85E10BDF80A40BDF80A00DF666910BDF80C70BDF80E50196767F347
:201DEC00DF04C1105C67BDF81000BDF81070A3F8601002F0FF04E910BDF80050A3F862105B
:201E0C008110A3F86840301DBDF80E60A3F8641000EAA21007F003010143A3F8661005F082
:201E2C000C0006F0070141EA4001A3F86A1006B0BDE8F0813C2400203EB5414C2079411C49
:201E4C003228C9B277DB60890025092125712A4603F074FF002801906ED0384BE178595C23
:201E6C0000F8011BB4F92820121200F8012B94F8282000F8012BB4F92A20121200F8012BCE
:201E8C0094F82A2000F8012BB4F92C20121200F8012B94F82C2000F8012B94F8272000F834
:201EAC00012B94F8262000F8012B94F8252000F8012B94F8242000F8012BE2789A5C520861
:201ECC0028BF00F8015B0A0906D3227B00F8012BA289121200F8012B49090DD3A17B00F855
:201EEC00011BE189091200F8011B217C00F8011B218A091200F8011B0199401AC0B2ADF88B
:201F0C000200684602F09CFF18B168461B2103F023FFA08965780A30A081681CC0B25028E1
:201F2C0008BF49204FF47041607091FBF0F080B22082E0813EBD21713EBDC0466C6A00009C
:201F4C00F81800202DE9F843804604F0C1FA002100B901213A4D2D1F28680028FCD0DFF855
:201F6C00DC90012609F10407FC6A2E6009B104F0B5FA3448C4F3072100F10804616004F05F
:201F8C00A7FA0146002001B93046014628680028FCD03F682E6009B104F0A0FAC7F3844136
:201FAC00A8F5C060A160B8F5C06F2060B4BF6FF001030223626803EB4003032093FBF0F074
:201FCC000918104602290FDB1E290BDB3F28B9BF521C401C3F22101CE2603029B4BF1039AF
:201FEC001F210DE0E0600BE010F13F0FACBF401E6FF03F00E06011F1100FACBF1031002199
:20200C00216180B24FF47F42082330210090484601F034FE0096484604214FF4003211234D
:20202C0001F02CFE208A04214FF4F80212230090484601F023FEBDE8F883C04600A00C40F6
:20204C0004800C409427002038482DE9FC4700680068014620208847354DDFF8D8A04FF0BA
:20206C0002080F2000214FF4C072072345F82D0C41F61D5045F8290C5046CDF8008001F003
:20208C00FDFD2D4C012644F8046C54F8040C8008FBD3DFF8A890B9F8000045F81D6C01288D
:2020AC001FD0032045F8390C0027276020688008FCD23946504660220523009101F0DEFDD8
:2020CC00266020688008FCD345F8216C45F8397C0820C5F8FF0FC5F8F30F45F8396C4646B3
:2020EC0020E00027E760032045F8390C276020688008FCD2CDF80080504639466022052358
:20210C0001F0BCFD266020688008FCD3202045F8210C45F8397C0824C5F8FF4FC5F8F34FD2
:20212C0045F8396CC9F80460BDE8FC87A001001039400C4000A00C4038600C409427002043
:20214C0010B50A46002804BF40F6FF70C0F20F0070D041F25030C5F200000068930CC0F3A9
:20216C008361C0F38F2063D242F30724002C28D542F307225342B2F1FF3F4FEA630315DAED
:20218C00400805D1490806BF0121081C4FF6FF70400804F1010405D1490806BF0121081C91
:2021AC004FF6FF705B1E04F10104E9D1520808D3400805D1490806BF0121081C4FF6FF70CF
:2021CC00641C002C34DD022C4FEA640204F001031DDB4FF6FF7C400040F00100844507D2A6
:2021EC00480040F001010F2992BF01200F216046400040F00100844507D2480040F001014C
:20220C000F2992BF01200F216046521EE3D1002B0EDD40004FF6FF7240F00100824207D234
:20222C00480040F001010F2992BF01200F21101C40EA014010BDFEE72DE9F043ADF1140DED
:20224C0000F086FE384D4FF0030908274FF6FF7800262C4603F0AAFD20BB009601A80DF1F9
:20226C0006016A4603F0D5F8E0B9BDF80400102814D1208ABDF8061088420FD1009801882C
:20228C00884509D14088C00B08D3042005F12C02014602F0A5FE01E001F0FAFF009808B1DD
:2022AC0003F0E2FE608A41082CD320F001002379E178608253EA010224D073B9E079237ACF
:2022CC008DF8080005F13E018DF809300A680DF10A031A608988998001E08DF80890607A79
:2022EC008DF81000A37A8DF8113002A804F0A8F838B1236B677023B11A6812B119683846B6
:20230C008847608A810806D320F002006082304601F056FA608AC1089CD320F004006082D3
:20232C0003F060FD96E7C046941C0020F8B504F0CFF8314C256805F00C000C2855D0E80832
:20234C002ED22E480068EFF3118780F311882C4EB068002104F01AFA7169B269091A8A426E
:20236C0038BF002187F3118826480068884217D22548264A264D036812682868B3FBF2F246
:20238C002018891A04F0FEF92868201804F0F6F90120FEF787FC2868201804F0EBF925E082
:2023AC00280922D21B48690939BF016821F00101016841F0010102460160D2F898004FF0BD
:2023CC00805440F00300C2F89800D4F8B8018069014620208847D4F8B8010F4C806B216880
:2023EC00804701202060206800E030BF04F076F801F054FAF8BDC046B4240020C46A000090
:20240C0078010020BC6A0000C06A0000C86A0000AC6A00008C2108402C2009402DE9F043AC
:20242C000646ADF11C0D04F0A1F903F0E9F84FF000090546CDF8009004F068F830F00100BE
:20244C0002D00098A84202D16FF0040059E070684C4658B1B0F1FF3F05D001A902F034FFB7
:20246C0030B107464CE04FF0FF3000E02046019004F078F90199012701EB000800E0019322
:20248C006868019904F06AF900282ED003A802F00BFDD8B9BDF8100002A902F0EBFC88B989
:2024AC00B368BDF80800BDF81210059A984748B1BDF81270F781BDF80800B081059B336119
:2024CC004F4612E00599684603F058F80198641CB0F1FF3FD4D00028D2D004F043F9B8EBA1
:2024EC00000302D001989842C9D2009905F1080003F094F924B1686804F02CF9641EFAD1CB
:20250C00384607B0BDE8F083F8B5064635480068B468756840680146206888472268012199
:20252C00C2F81C1868B12B7AFF2B0AD0FF214009297253D20420C2F80408022004F02AF894
:20254C004CE0287A002849D0401E14D0401E02D0FD3846D03FE0D2F80828286F0270686FAA
:20256C002A6F401E521C68676F6F2A67D7B1012F88BF092128E0E86E401EE866EF6E9FB9C4
:20258C006F6F7FB10220696E28722268097C012F4FEA410141F00101C2F8001894BF032158
:2025AC000B2113E004210DE0A86E22680078C2F80808A86E022F00F10100A86604D26F6F01
:2025CC0017B905210020287222680220C2F8041803F0E0FFF8BDFF202872F8BD304601F061
:2025EC00D3FBF8BDAC0100102DE9F04104466568A6680F46ADF1480D04F0A8F895F8981012
:20260C00012903D104F09EF8002050E04FF0010885F8988004F096F81FB90DA803F084FE75
:20262C000DAFF968204601F03BFA0028ECD13878287078686860387A002130220823E86078
:20264C0001A804F0ABF8069400270097194A716805F1100001AB04F09DF801A82422082345
:20266C00394604F0A3F805F12C008DF81C80414601AA04F097F8287838B905F148003946FA
:20268C0001AA04F08FF80C4868602F72AF67EF67307A00F015F8204601F010FD05F184005A
:2026AC00064A00970421234602F03EFE204612B0BDE8F0811525000087650000956300000F
:2026CC002DE9F04105462E480068EFF3118880F311882C4A505D411C0028515549D12A4C19
:2026EC00A900675C07F03F003F280C4401D0FFF7E7FF607800F03F003F2801D0FFF7E0FFB4
:20270C00668837F07F0019D1F80911D24FF08054D4F8B801406901463046884704F5DC7435
:20272C002068406B0146304688470128F8D120E0164850F82610012088471AE04FF0805403
:20274C00D4F8B801C069014630468847D4F8B801406A014630468847D4F8B801C06A014682
:20276C003046884701210A4A0A48116001688908FCD388F31188284603F0B4F8BDE8F081CF
:20278C00C46A0000E0210020B4680000F8210020282008602820084038B52E4C04F10C00E1
:2027AC0004F1180100F0BCFC02462B49A26003F09BFE2A4D10464FF4E0212A46D21C02F0AC
:2027CC0061FFA0684FF4E0212A4602F05BFFA0684FF4E0212A46921E02F054FFA0684FF489
:2027EC00E0212A46521E02F04DFFA0684FF4E0212A46D21D02F046FF194DA0684FF0C0510E
:20280C002A46D21C02F03EFFA0684FF0C0512A4602F038FFA0684FF0C0512A46921E02F0C4
:20282C0031FFA0684FF0C0512A46521E02F02AFFA0682A464FF0C051D21D02F023FF0949EC
:20284C0004F13000C822002301F0DCFD0648606038BDC04624250020893F000006000580AB
:20286C0006000010196200006F6500002D492DE9F0410968EFF3118881F311882A4B195C47
:20288C004A1E01291A5449D12849800045180E5C6F8836F07F0019D1F00911D24FF08054E5
:2028AC00D4F8B801806901463846884704F5DC742068406B0146384688470228F8D120E007
:2028CC001D4850F82710002088471AE04FF08054D4F8B801006A014638468847D4F8B80104
:2028EC00806A014638468847D4F8B801006B01463846884701210E4A0E481160016889088F
:20290C00FCD306F03F003F2801D0FFF7AFFF687800F03F003F2801D0FFF7A8FF88F31188D3
:20292C00BDE8F081C46A0000E0210020B46800002820086028200840F82100202DE9F04744
:20294C000E4681467068D9F80450D9F808A0002410B9F06800284ED0287801280FD103F0B3
:20296C00F5FEA96F39B1E96F8E61EE6703F0EAFE0120BDE8F087AE67EE6703F0E3FE03F071
:20298C00E5FE1E4F80463878012804D0042002F065F901203870404603F0D4FE05F12C08B6
:2029AC004FF0FF31404603F0D9FEDAF8040003F0C5FE4846314600F0DCFFDAF8040003F027
:2029CC00B9FE287898B905F148004FF0FF3103F0C5FE03F0BBFE0646387818B1042002F059
:2029EC003FF83C70304603F0ADFE287A00B90124404603F0AFFE2046BDE8F087F71800207D
:202A0C0041F21C3010B5C5F200000468B4F1FF3F08BF002403F02CFC40F2844346F25C01CC
:202A2C00002242F2082E012040F2801CC4F26023C4F20C011A60C4F2043E0860C4F2283C1F
:202A4C00CEF80000DCF8000038B140F20010C4F2203000682046FDF7C3FD44F20402C4F22B
:202A6C0003021068052142F24803C2F20001C4F2030320F003000143116019684FF0000E21
:202A8C00C0F2391E6FF35B414EEA01000421C4F2090118600868C0F30130012809D10A68C4
:202AAC004FF6FF70CFF6FC40104040F400320A60086010BDF8B50D46EEB2290824BF2549DE
:202ACC004D40254AB300D15885EA01040440C4F3006C224C00EA050781433C4000F4E02798
:202AEC002143B7F5E02F01D14C0E15D300F4E0245CEA040710D001F4E027B7F5A02707D028
:202B0C00B7F5803704BF21F4003141F4A02103E021F4803141F4C021114CD150C10D04D365
:202B2C00A4F1E001C5F380528A55000E11D303F00DFE290E03D201210022B14002E0012175
:202B4C00B1400A46103C23688B431A43226003F0F9FDF8BD006000A000100840FF7F077FAA
:202B6C00E02002402DE9F0410E46294990461C4606AF8C4672680878BB8851783F88127884
:202B8C00002502EB012242F62321521A29D0521E052A18D9921F0CD0263A34D1072F30D853
:202BAC00C7F10700984298BF83B2674407F1080121E0B84225DBC01B9842D8BF83B2238019
:202BCC00DCF804000BE0F06803F066FB80B2B84217DBC01B9842D8BF83B22380F06839188F
:202BEC000AE0082F0DD8C7F10800984298BF83B207EB0C010F31238040461A4600F0F8F9F4
:202C0C0003E0072501E025800A252846BDE8F0810C20002029482DE9F84FD0F80090EFF30C
:202C2C00118589F31188264CA068012103F0AEFD4FF0010A4FF00008064621686769A4F8D1
:202C4C001CA02068A4F81E80791A321A8A42A6EB07062DD385F311884546EF1950463946E8
:202C6C0003F064FD761B0546B542F6D9EFF3118B89F31188E08B012804D14046394603F05E
:202C8C0055FD0546B5F1FF3F06D0A169AD1BA94238BF0D1CE91901E0A5697919284603F010
:202CAC0041FDA4F820A0A4F81C805D46276001E0A4F81C8085F31188BDE8F88FC46A000088
:202CCC007801002010B52748274C0078ADF1280D00283ED00123019307AA029209A80090E9
:202CEC00072103911823022260698DF8103069468DF8242003F022FC9DF81C009DF81D2013
:202D0C00811141EA8201880A24BF41F47C4109B221859DF81E009DF81F10801140EA8100EC
:202D2C00810A24BF40F47C4000B260859DF821109DF82000801140EA8100810A24BF40F439
:202D4C007C4000B2A0859DF82200173084F82E0005E02046FF210822283000F083FC0AB016
:202D6C0010BDC046F4180020F8180020F8B5264C2068EFF3118680F3118824491D4D0B68A2
:202D8C000420B0FA80F043F00403281A1F3002780B60521C027086F311882068EFF3118349
:202DAC0080F311880A680820B0FA80F042F008022D1AE87F0A60401CE87783F311880E20FB
:202DCC00FFF77EFC0C480068C0F38150032814BF0020012009490A4A088017683FB9094CFE
:202DEC00402020600123D36100204860F8BD0120F8BDC046F3210020B43F005094270020E4
:202E0C0004800C402C500C40C46A0000B4240020BCB5FEF7C5FC01F0ADFA02F0DDF9234CF2
:202E2C00002502F0B5FF10BB009501A80DF106016A4602F0D7FAD0B9BDF80400102807D1E8
:202E4C00E088BDF80610884202D1009803F01CFB009860B103F0FCF809E0E06902F0F4FE4E
:202E6C00071C04D002F0A7FA384603F0CDF8E06903F0B4FC0028F0D02089810805D320F098
:202E8C000200208102F0A2FC2089010905D320F00800208102F06EFF2089C10BC1D320F433
:202EAC008040208102F030FEBBE7C046F8180020F0B520480127F84201D001F00FFA204D06
:202ECC00204F214EBD4206D203CD0478A4003459401CA047F6E71D48002800D08047164D0D
:202EEC00164FBD4202D210CDA047FAE7F0BD03251BE0416808300A1C2A400BD11A1C2A402C
:202F0C00AB4305D0046804300C600431043BF9D1131C05D0047801300C700131013BF9D133
:202F2C00021C2A4001D0A84304300368002BE0D17047C046FFFFFFFF00000000000000000D
:202F4C00F8710000607200009871000059C501102DE9F84302F08AFC234D00246C704FF674
:202F6C00FF70E88201F05EFE204E012322462870314605F1A80001F045FA0223224605F1C5
:202F8C00CC00314601F03EFA0423224605F1F000314601F037FA042705F14A081022404680
:202FAC002146AF7000F05EFB05F15A0910224846214600F057FB05F12C063460EC71072034
:202FCC002C72102168724246AC72022001F0EEFF032010214A4601F0E9FF3846324601469C
:202FEC0001F0E4FFBDE8F883941C0020ED600000002A4AD05FEA000C8B071CD1830722D11F
:20300C00102A08D370B4103A78C978C0103AFBD270BC103238D0042A2CD3082A05D30C2AAE
:20302C0024BF08C908C008C908C008C908C092072AD0920F22E00B780370491C401C521E79
:20304C0022D08B07F7D1C30714D18307D8D0121F12D308C903801B0C4380001D121FF8D2CB
:20306C000AE008C903701B0A43701B0A83701B0AC370001D121FF4D2121D05D00B780370C0
:20308C00491C401C521EF9D16046704770B5054602F0E2FA41F6C804C2F2000466680346BC
:2030AC0002F013FA22699B1B4FF47A715943090C801A48BF404240F6B83249198A4216D38B
:2030CC00062814DAA268E068824210D8216871B1801A44F24022C0F20F024243900C00EB1E
:2030EC001240814212D90846C82811D312E043F6AC71C5F200014868400828BF4FF4FA6026
:20310C000DD209687D2001F0FF014843C82801D2C82070BDB0F57A6F88BF4FF47A6070BD43
:20312C002DE9F843204D884606464FF0FF3105F12400814603F012FB002000E0401CB8F156
:20314C00000F0DD018F82010FF2909D02A688A4204D905EB8101096E0029EFD000261CE008
:20316C000024346074600127B4600EE005EB80000B787268066607FA03F0104370600A68CB
:20318C000A49304602F07EFA641CB8F1000F04D008EB84010878FF28E8D1484603F0DAFAB7
:2031AC003046BDE8F883C04688160020007FC76738B5042002F0BEFB1A4C022818BF0328AE
:2031CC001FD103200090164800214FF040521C2300F054FD17480068EFF3118380F3118827
:2031EC0015480421B1FA81F1401AC17F4A1E0129C27703D1206820F00400206083F31188C0
:20320C0038BD094D0A48094A296803686018B2FBF3F103F0B7FA2868201803F0AFFA38BDB0
:20322C0000A00C40B4240020B06A0000A0860100C86A0000C46A0000F321002010B51A48A2
:20324C001A490078086820F0030040F00100086001F096FA01F011FF0021154C1548216089
:20326C000068C0680146022088471349134A086820F0010008601068D4F8EC1FEFF3118412
:20328C0080F311880E4B0F481A680421B1FA81F1401A42F00402C17F1A60491CC17784F342
:2032AC0011884FF0FF3010BDF61800200440034040100940A00100108C210840C46A00000C
:2032CC00B4240020F32100202DE9F0411E4987684668086802F0F7FC38680024C0F8104842
:2032EC003968C1F80448D1F8200820F01000C1F8200803F02BFA154D8046287818B104205D
:20330C0001F0AEFB2C70404603F01CFA387AFFF7ADFA06F1100003F001FA06F12C0003F082
:20332C00F9F9307818B906F1480003F0F3F906F1840002F073FD03F009FA86F8984003F0DC
:20334C0001FABDE8F081C046F0180020F7180020F8B505461E480068EFF3118780F31188A7
:20336C001C4C20684FF0805640F080002060D6F88C014068014601208847D6F8B001006AE9
:20338C00014614208847286906F5C675810C14BF010C04212868406A024601209047D6F836
:2033AC008401006823210246002090472868C069014601208847206820F4C02040F4803041
:2033CC002060206840F00100206087F31188F8BDC46A00000020094080B5071C38D041F236
:2033EC00783043F6AC72C5F20000C5F2000200685168C0F3035EC0F3034C490818D2116867
:20340C000A051EEB227E05D4BEF1100F04DB4FF00F0E01E04FF0000E09041CEB217C05D44E
:20342C00BCF1100F04DB4FF00F0C01E04FF0000C4CEA0E1C00F47F4100F0FF02222F41EACE
:20344C000C4142EA010207D300F08040104380BD43F62772C0F27102104680BDF8B5001D76
:20346C0084B214F0030002D0241A241DA4B202F0E3FC01461948102C47680160C8BF876821
:20348C00388800221646C30BDD0319D126B984420ADD3A46012617E01388C3189BB29C427F
:2034AC00138011DC174618469FB1001B80B20428B4BF3C88385344F400443C803F1D08E0BE
:2034CC0080F40040002680B2C71938880028DAD10027084602F06EFE3846F8BD3C230020DC
:2034EC00B0B50446A768ADF1280D27BB0C20FFF7B5FF071C16D0684600212422082303F03B
:20350C0005F9002306976A466168ADF810301448059303F0F7F8386038B902F040FE384676
:20352C0001F0EAFF6FF0030018E0E06878602069B860A7600AE002F07FFC0546386803F04E
:20354C0019F92069B860284602F034FE3868616803F018F9386803F011F900200AB0B0BDC9
:20356C00A16400002DE9F043ADF13C0D03F03AF9DFF86880174C00250646684600213C2224
:20358C00082303F0BBF858F8042F6068A768069023680897694605920F480493002203F0EB
:2035AC00A9F8071C10D002F047FC8146384600F023FE48B1484602F0FDFD241D6D1CDCD0E7
:2035CC00304603F0F7F801E001F016F80FB0BDE8F083C046F8670000656300002C23002034
:2035EC002DE9FC41144608AF4D68DFF86C803E886A782F7807EB022742F60212BF1A16D06E
:20360C00A7F237171FBB86B9012B0CD12078012807D1C9684746087039680320002788470C
:20362C0016E0802714E00D2712E00B2710E00096224600F079FE071C0AD16178207810EBD6
:20364C0001200CBF0220012041460968E7E70A273846BDE8FC81C046A42200200022134631
:20366C000A46194671B510F0030F0BD0002A82BF00F8011BB2F1010210F0030FF6D1002A54
:20368C0008BF71BD11F0FF0141EA0121042A18D341EA0141082A0FD30E46102A08D30C4686
:2036AC000D46B2F10F0312F00F0272C0103BFCD812F0080F18BF42C012F0040F18BF40F87C
:2036CC00041B12F0020F18BF20F8021B12F0010F18BF017071BDFEE770B50646F088F568ED
:2036EC000628A5F108052CDAB088062829DA02F0A3FB154CF28891000C3401EBC20161181A
:20370C004968E1B102F056FD30792870B0796870307AA870F188880000EBC1002018F168D3
:20372C004068083001F02AFFF188880000EBC10024186068406803F00DF8002070BD02F0F3
:20374C0039FD6FF0020070BD6423002041F2A00108B5C5F20001D1F878020B68020F03F0EF
:20376C00FF03802B28BF002301F01CFB4FF0FF3188B1401E05D0401E1FD1F2B90A3358B263
:20378C0008BD101C02D0801E02D016E00A2008BD143358B208BD1046401E0DD0801E04D0EC
:2037AC00001F04D0401E04D007E0142008BD152008BD163358B208BD0A21084608BD7047F1
:2037CC00FEB51A4C0546F03C208C218B81420CDC618B814209DBA08B618C884205D1E08B94
:2037EC00A18C884208BF18271DD0052001F066F8278B638BADF80270A28BADF80430E18B36
:20380C00ADF806200646ADF80810E08AADF80000684602F021FE071C05D1A57304F1F00004
:20382C00314601F0ABF93846FEBDC046841D002038B50079184CA0B902F0FEFA21780029A1
:20384C0004BF6FF00704051C13D0491EC9B2217029B902F0AFFC606801F038FA18E005460B
:20386C0013E002F0E9FA05462078FF2805D16FF00604284602F09EFC0BE0401CC0B201284F
:20388C00207002D1606801F03CFA284602F092FC0024204638BDC046BC27002045F22800F5
:2038AC0080B5C4F2090007686FB343F6AC70C5F20000826802EA5201C90E24D2416889083B
:2038CC0021D20021C4F20901D1F800C000681CF0050F4FEA104000F0F00000F5E0700CD16C
:2038EC00B84210D2100F38BF4CF0010CD00E38BF4CF0040CC1F800C080BDB84284BF2CF051
:20390C00050CC1F800C080BD2DE9F041054615F8017B90460E461CE0B8F1000F05F10105DF
:20392C000BD0FF2C09D8022015F8011B401E41EA0424F9D101E0042C02D315F8011B00E0DF
:20394C00394630462246FFF78DFEA61901E006F8010B15F8010B8742F9D115F8014B002CA2
:20396C00E9D115F8010B2C7800022418D4D1BDE8F08198B54268806851660B6893664B6816
:20398C00D3668B68D76E1367C968516777B9516E0B7C0168580040F00100C1F80008536F5C
:2039AC000220022B107212D30B2211E0516E0368097C01274900C3F80018916E1772046840
:2039CC004B1C93660978C4F80818016802200322C1F8042802F0DEFD98BD10B5012001F090
:2039EC00A9FF012829D04AF20000342101220023C4F20C0000F096FD002808BF00201DD0D9
:203A0C008020C1F200000068804701F025FE41F6C80344F24022C2F20003C0F20F029C68EC
:203A2C001968D860041BA1EB91016243120C8A4224BF1A60012001D21960012010BD98B5F0
:203A4C0041F23403C4F2090318680004070C26D001F03BFD41F6E802C2F2000292F90710FF
:203A6C00814205DD10F1800FB8BF6FF07F00D0719188B94212D81468D3F8D40F001B801C90
:203A8C001F2888BF1F207F1A4008C7404FF6FF70C919884238BF011C918098BD978098BD1F
:203AAC007FB519B98068067B457B01E00E784D78FF2E1BD0FF2D19D00E48FF2240EA0601CA
:203ACC000292284301900C4800916946FFF728FB0A4C206050B131460D2201F0DBFE2068CE
:203AEC0029460E2201F0D6FE002001E04FF0FF3000907FBD00200084DC180020F01800203B
:203B0C00F8B506AF3F881D461446002F18BF0B2022D148684278007842F61927002600EB24
:203B2C00022087420BD042F60812824218BF0A2611D102202880C868008820800BE001F0B6
:203B4C0039F80649491C0A788242C4BF021C0A700120288022703046F8BDC046C423002080
:203B6C0038B502F0F3FD154C0546A01D008840B9FFF7FCF80446102000F0DAF8012C0DD050
:203B8C0017E0FFF72AFF60B10020E080FFF7EEF80446102000F0CCF8012C0AD1FEF754FA1D
:203BAC0007E030340521204602F0ECFD204602F0E5FD284602F0C6FD38BDC046B4240020F7
:203BCC00F8B5054605F128020CCA0846002102F09FFA05F1300292E8C00036184FEA1644AE
:203BEC0047EB01073804044301F036FD211AB1F1004F08D8011B091DC90F05D1001DA042DD
:203C0C0088BF041C00E0041D04480068426A214601209047383585E8C000F8BD8C01001085
:203C2C001549096821280ADC212819D00C380FD00D380FD0001F0FD0C01E0FD01AE02538EF
:203C4C0010D0401F10D0401E10D0401E10D011E0086870474868704788687047C8687047B0
:203C6C000869704748697047C8697047086A7047486A704700207047F00100202DE9F041FF
:203C8C00984600EB41001646B8F1100F06AF00F5007404D3A8F1100800F50174360C3D88D3
:203CAC0002F016FC05FA08F545EA06450021002808BF012148F20002C4F20C02106810B90B
:203CCC0010680028FAD025600120106009B102F005FCBDE8F0810000B0B5044602F046FDB1
:203CEC0000F08AFA054602F0A7F80146A2880F480023243030F80C7F5FB902804560A38113
:203D0C00A2688260686820610024084602F052FA09E0974208BF6FF00204F6D05B1C062B4E
:203D2C00E8D300F069FC2046B0BDC04640230020F8B507461248134C0668301902F04EFD64
:203D4C000025A419B8B9204602F044FD0646B068074205D0F268316938469047C0B230B945
:203D6C00304602F033FD0646B442F0D103E003480068804702252846F8BDC046B86A0000CD
:203D8C00B46A0000B424002070B505466C68207A616E002200B901226068034628469847F8
:203DAC00A06FE16F814210D100256566A56702F0CDFC094C0646207818B1042000F050FED9
:203DCC002570304602F0BEFC70BD8069A067A16F2846FFF7CEFD70BDF71800202DE9FC4115
:203DEC000446A16860686E460025086002F0CFFB46F8040F002808BF6FF0030012D06D1C92
:203E0C00F4D0094E002701ADB846CDF8008055F8040B16F8011B054AA36801F085FA7F1C78
:203E2C00F3D04046BDE8FC81C369000075520000B0B5044602F06AFB30F0010008BF6FF0CB
:203E4C0004041BD002F092FC054601F0F5FF0C4A062132F80C7F6FB1A388BB4208D15268A6
:203E6C0012680021954208BF0121A160002403E0491EEED14FF0FF3402F09CF92046B0BDE1
:203E8C006423002038B50C4620B141680122A240114201D1022038BD914341600D48002586
:203EAC00231800EB84010D6603F140010978FF291ABF406850F8211044F020410448FEF72A
:203ECC00F9FD20464FF0FF3101F07EFF284638BD007FC76788160020DCB5044602F046FCC0
:203EEC0001F08EFB064602F011FB30F0010014BF002E6FF0040017D0606858B1B0F1FF3FD6
:203F0C0005D0694601F0E0F930B107460BE04FF0FF3000E0002000907068009902F01EFCB3
:203F2C00002700B901273846DCBD70B504464AF200060D466008ADF1080DC4F20C0607D395
:203F4C00A8B20021009001220B463046FFF796FEA00807D3A8B2009000210222012330468B
:203F6C00FFF78CFEE00807D3A8B2009000210C2202233046FFF782FE02B070BD10B50920DC
:203F8C0002F06CF900280CBF01240024062002F065F908B944F00204042002F05FF908B9E2
:203FAC0044F00404052002F059F908B944F008040D2002F053F908B944F01004024804701D
:203FCC00303002F01CFB10BD24250020F8B5124C267CA578182001F0E7FD071C19D004212E
:203FEC00002202F063F9304601F0EEFC38727D720020B87204F14A06FE6004F15A033B6180
:20400C0004F12C027A6101F0DFFD024A394600F0EBFCF8BDC5650000941C00202DE9F04131
:20402C00044611480F3090F8008016460D46102001F0BAFD071C12D00421072202F036F98F
:20404C00404601F0C1FC38727C72BD72FE6001F0BBFD044A394600F0C7FCBDE8F081042098
:20406C00BDE8F081EF650000951C002010B5124C810808D32246D21C1178491CC9B2072983
:20408C0008BF00211170000914D32078062811D00820202100F0BAFE0920202100F0B6FEF5
:2040AC00002047F2305100F0B1FE00F0CDFF08B90120A07010BDC046F81800203EB545682A
:2040CC008468684602F012FB0F480E4BE968026853F8211020681368002201B101220199C0
:2040EC00984720680122C0F81C282168D1F8200840F01000C1F82008C1F804282068C0F86E
:20410C0010283EBDD8690000AC010010B0B5054602F02CFB044602F0F9F930F0010008BF83
:20412C006FF0040416D001F087FE01460A48002230F80C7F4FB143681B689C4204BFAA8049
:20414C00002404D0521C062AF2D36FF00404084602F030F82046B0BD64230020F8B50446B8
:20416C0002F004FB00F048F8071C19D001F064FE84460D480021243030F80C6F6EB94FF610
:20418C00F87202804760A180002585607868A060604602F00FF82846F8BD491C0629EBD361
:2041AC0000F02AFAF8BDC0464023002010B5114C607806281CD1208B062819DBB0F5486F63
:2041CC0016DA608B062813DBB0F5486F10DAA08BB0F5FA7F0CDAE08B0A2809DBB0F5486F8A
:2041EC0006DA0120FFF7ECFA04F1CC0002F009FA10BDC046941C00202DE9F843804601F075
:20420C001BFE0F4C03250026814654F80C7F5FB93046C4F800800146A6600A4602F062FA7D
:20422C00606018B900F0E8F9474501D1264601E06D1EEAD1484601F0BDFF3046BDE8F8834E
:20424C0040230020BCB514464A685578127806AF02EB052242F60215954213D13A880092D4
:20426C00224600F061F8074608480830016857B949B16278207810EB02200CBF022001209C
:20428C00884700E00A273846BCBDC046C423002010B50178A23902D02E391AD010BD41796B
:2042AC00132918D100890C4C01280AD12046F038817B022905D1F03002F0A3F901F014FEAC
:2042CC0010BD052000F0FAFA0146204600F056FC10BDFCF761FE10BD841D0020F8B5064667
:2042EC000F4D104F7388002417E0A00000EBC400321851689068D26852B9AF420BD00A7804
:20430C0055F822200346491C08461946904701E0FEF76EFE7388641CA4B2A342E5DCF8BD62
:20432C0098710000A4710000F8B506AF3F880D460646E7B9022B18D15078147804EB00246E
:20434C0034F001000FD1E9680968304601F0DCFF844208BF00200BD0E96809683046224620
:20436C0001F0F8F9F8BD8020F8BD0D20F8BD0B20F8BD000038B56B2000F082FA0D4C4228DC
:20438C0014D101202070FDF7C9FC0B4D201D03224FF48043294600F035F804F128000A222D
:2043AC004FF40043294600F02DF838BD0020207038BDC0463C2400207563000008B50D48DD
:2043CC000D4B006890FAA0F0B0FA80F1012000FA01F21A60094A1060094802688A4207D92A
:2043EC0000EB8100006E18B102680AB1C9B2904708BDC046E0200240E020026080E200E0E6
:20440C0088160020F0B50D4614461F460646ADF1240D002124220823684602F077F900203E
:20442C000590ADF8100008484FF47A71A2B26B4600680697B1FBF0F080B229464243304676
:20444C0002F04CF909B0F0BDC86A00003EB5104C6169054601F058FF400818D32846012112
:20446C00002201F06BFC019088B1B4F842100123ADF800106278ADF80230694602702846D5
:20448C0001F03EFD18B168461B2101F065FC3EBDC42300202DE9F04104460F48E038057860
:2044AC0090460E46102001F07FFB071C10D03246042101F0FBFE284601F086FA3872FC60BC
:2044CC0001F082FB3946424600F08EFABDE8F0810420BDE8F081C046841D00202DE9F04185
:2044EC0004461E4690460D46142001F05DFB071C13D03246032101F0D9FE3C810020387469
:20450C004046FD6001F060FA787401F05DFB044A394600F069FABDE8F0810420BDE8F081BC
:20452C00935E000070B51E460C181546102E02D3103EA41C2D0C01F0CBFF0021002808BF51
:20454C00012148F20002C4F20C02106810B910680028FAD024880120106009B101F0BEFFDD
:20456C0005EA0400304180B270BD00000F48B0B5047CC58A0E2001F017FB071C11D0042187
:20458C000A2201F093FE204601F01EFA38727D811320387301F018FB034A394600F024FA8E
:2045AC00B0BD0420B0BDC046E9650000941C00200C4885460C4885446F4607208743BD46E8
:2045CC000A486F4607600A48002803D07946491D8E460047FEF76CFC01F08EFD02F07AF897
:2045EC00FEE7C046E83F002000040000D82700203D65000000BF704708B5FFF7FBFFFEE7B0
:20460C0038B50546094800688047094C201D006810B1014628468847206800B1804705484A
:20462C0000688047FFF7E8FF38BDC046C4270020CC270020C827002038B50F4C2C34A4F1FD
:20464C002C01086820F00100086054F82C1C4FF0805541F0800144F82C1C01202060D5F8EC
:20466C008C11226849688847D5F8B001006A014614208847206838BD0020094098B50446D8
:20468C002420FEF7EBFE071C14D000212422082302F08CF82079012804BF01203876A06881
:2046AC003946002202F01EF8E060384600F024FFE06810B96FF0030098BD002098BDD0B5B2
:2046CC0004463C20FEF7CAFE071C14D000213C22082302F013F8207AB86160893862E0683F
:2046EC00386160683946002202F004F80646384600F002FF16B96FF00300D0BD0020D0BD98
:20470C0000B5ADF1240D07A98DF81D000A4800910221019100210291006803916D218DF85C
:20472C001010F4218DF81C10694601F007FF0349087009B000BDC0460C190020F51800202F
:20474C0000B500213C220823ADF13C0D684601F0D5FF094800F5B27107914FF40271089144
:20476C0003210691054900236A4600F58A7001F0ADFF0FB000BDC046941C0020452200000C
:20478C0010B54FF08054D4F8900181680120884741F21401C4F209010868800902D20868BA
:2047AC008009FCD3D4F8A00101684020884704F5D07420688168402088471128F9D110BDE3
:2047CC00012810B515D1012001F0B4F8012812D001F04CFB094C0120E0803034204601F067
:2047EC00C9FF0521204601F0CDFF204601F0C6FF01E000F042FC002010BDC046B424002086
:20480C000C4810B50068EFF3118480F311880B48C088012809D10848342101220023FFF709
:20482C0081FE002808BF002000D0012084F3118810BDC046C46A000000A00C40B4240020F8
:20484C00B0B504460D48026840680F4600211200401841EB020104F128020CCAFCF7C2FD80
:20486C0005460B4647B104F1280003C82A4601F04FFC303484E803002846B0BD08200940E5
:20488C0000B5ADF1240D08A98DF8200007AA00910848029201210191006803916D218DF849
:2048AC001010694601F04AFE034908709DF81C0009B000BD0C190020F51800203EB5054649
:2048CC000020ADF804000A2001F06EF9041C0DD00421312201F0EAFC258101F075F901A986
:2048EC000223044A0091214600F09CF8BDF804003EBDC046D1650000F8B5044616460D4627
:20490C00142001F051F9071C0FD00421022201F090FDBC60BD811020B8733E6101F054F9C1
:20492C00034A394600F060F8F8BD0420F8BDC0461564000000B500213C220823ADF13C0D04
:20494C00684601F0DBFE084800F58C7107914FF42171089101210691044900236A46C830BA
:20496C0001F0B4FE0FB000BDF81800201D2E000070B50446606810F07F4F18BF6FF0020054
:20498C0011D101F059FA084D0646287828B1686800F09CF9606800F0B4F96068686030460B
:2049AC0001F008FC002070BDBC270020B0B504460D46102001F0F8F8071C10D02146062201
:2049CC0001F037FD0020388115247C81054AFA6001F0FAF839462A4600F006F8B0BD04209D
:2049EC00B0BDC046631900201CB51446CA78012A02D18A880A4B1A8000F018FE30B9002021
:204A0C0000906946204601F07CF918B101F0F8F9044603E00098447801F032FB20461CBDF6
:204A2C00B027002038B51C46154600F0FFFDB0B9002000906946284601F063F978B9009990
:204A4C00487848B90846C1798C4205D10146049889682246FEF7CCFA009801F011FB38BDDC
:204A6C000C4910B50968EFF3118481F311880A49B0FA80F2891ACA7F531E012ACB7703D10E
:204A8C00034A11688143116084F3118810BDC046B4240020C46A0000F321002000B5ADF17F
:204AAC00240D08A8009001200190039018208DF8100000208DF82000054807A900680291AA
:204ACC00694601F03BFD9DF81C0009B000BDC0460C190020F8B5044616460D46142001F0B5
:204AEC0063F8071C0ED00121142201F0A2FC3C72FD603E820420B87401F066F8024A394632
:204B0C00FFF772FFF8BDC0462364000038B50B4C2068B0F1FF3F10D10021094D216004E078
:204B2C00896888472168491C21608A00284602EBC102801801680029F2D138BDD427002095
:204B4C00E069000010B504460B4802680023D90750080143D007801A4FF47A729941FCF728
:204B6C0041FC002908BFB0F1004F28BF6FF000406060002010BDC046C86A000038B50D4661
:204B8C00044601F044FD10B1204601F0F3FD084800684FF47A71B1FBF0F080B205FB00F1F0
:204BAC00204601F0EFFD204601F0E8FD38BDC046C86A000038B50C4C04F10C00006800B1DE
:204BCC0080470848026861887D25642305FB02F0420903FB02F0B0FBF1F5206900B1804777
:204BEC00E8B238BD28500940C4230020F8B50C4D0A4E143531782A6800244FF6FF7709E0A8
:204C0C0032F82400874203D0FFF720FC2A683178641CE4B2A142F3DCF8BDC046941C0020FE
:204C2C00C42300201CB500208DF80400082000F0BBFF041C0CD00121122201F0FAFB00F0ED
:204C4C00C3FF01A90123044A00912146FFF7EAFE9DF804001CBDC046316400000C4938B545
:204C6C000968EFF3118581F31188074B07491A68B0FA80F4091B1043CA7F1860521CCA7709
:204C8C0085F3118838BDC046B4240020F3210020C46A000010B50C4600F0DEFC211AB1F1E4
:204CAC00004F08D8011B091DC90F05D1001DA04288BF041C00E0041D03480068406A21469E
:204CCC0002460120904710BD8C01001038B50546012411E0C0F11F0004FA00F1052881EA79
:204CEC00050504DB401FC0B2FDF7C0FD04E004FA00F0C0B2FFF7B4FEB5FA85F02028E9D12B
:204D0C0038BD38B50546012411E0C0F11F0004FA00F1052881EA050504DB401FC0B2FDF73F
:204D2C00CFFC04E004FA00F0C0B2FFF797FFB5FA85F02028E9D138BD98B50446A06858B109
:204D4C00B0F1FF3F05D0694600F0BEFA30B107460BE04FF0FF3000E00020009060680099C4
:204D6C0001F0FCFC002700B90127384698BD000000B5ADF1240D8DF81C0007AA8DF81D10DB
:204D8C0007480092022269460192002202920068039218228DF8102001F0D0FB09B000BDEC
:204DAC000C19002041F21830C5F2000001684BF69A10C1F30F31884208BF00200BD0243048
:204DCC00884208BF012006D04BF6203088420CBF02204FF0FF307047F8B5044616460D462C
:204DEC00102000F0E1FE071C0CD00421362201F05DFA3C817D81FE6000F0E6FE024A39462C
:204E0C00FFF7F2FDF8BDC046B965000070B505460E460C2000F0C8FE041C0CD004213022AF
:204E2C0001F044FA2581668100F0CEFE034A2146FFF7DAFD70BD042070BDC046DD650000A7
:204E4C0070B504460A48094D0A3029680088064601F05AFA400806D3E88D21462080304638
:204E6C0001F04EF870BD122070BDC046A8220020F8180020024680B5062A0CDA094F9000C8
:204E8C0000EBC20007F13002175A13181FB14FF6F870B84202D14FF0FF3080BD1888088076
:204EAC00002080BD4023002010B5044601F05EFC00F0A6FB002808BF6FF004000DD00830B4
:204ECC0000F0BEFAA06038B110F8081CA18010F8070CE080002010BD022010BD10B5044682
:204EEC0000212C220823ADF1300D684601F01AFBE0200890A168606800236A4601F0E2FB73
:204F0C00002818BF002001D1FFF776FB0CB010BD10B5044600212C220823ADF1300D684672
:204F2C0001F000FBE068A1680890606800236A4601F0C8FB002818BF002001D1FFF75CFB03
:204F4C000CB010BD10B5044600F076FF094B0022014633F80C0F30B1A04208BF94B203D0A2
:204F6C00521C062AF5D3FF24084601F023F9204610BDC04664230020010446F244020B0CC7
:204F8C00C4F20C02C0F3074142F8083C012042F8041C40F68401C4F28C311060086810B976
:204FAC0008680028FAD0002010607047F8B5044616460D46102000F0F7FD071C0CD005215D
:204FCC00012201F073F93C727D72FE6000F0FCFD024A3946FFF708FDF8BDC046FB65000080
:204FEC00F8B5044616460D46102000F0DDFD071C0CD00521022201F059F93C727D72FE607E
:20500C0000F0E2FD024A3946FFF7EEFCF8BDC0460166000038B505460C2000F0C5FD041CB2
:20502C000DD02946002201F004FA4FF0FF30A06000F0CAFD034A2146FFF7D6FC38BD04204D
:20504C0038BDC046A954000008B540F205306946FCF7D2FD9DF80000002100B9012140F2F4
:20506C0005306A468DF800100121FCF7A9F89DF80010002001B1012008BD08B50320002196
:20508C00FEF753FF012000F055FC20B18020C1F200000068804700F0DFFA41F6C803C2F289
:2050AC000003586000F011FA186108BDF8B5044616460D460C2000F077FD071C0DD02A464A
:2050CC00042101F0F3F83C810520B87200F07CFD39463246FFF788FCF8BD0420F8BDF8B5A2
:2050EC00044616460D46102000F05EFD071C0DD02A46042101F0DAF8BC600020F86000F054
:20510C0063FD39463246FFF76FFCF8BD0420F8BD98B504AF3F88002F18BF0B2010D14868B4
:20512C004478007842F6382700EB0420874218BF0A2005D101201880C868007810700020E8
:20514C0098BD1078802811D1508840F27F6181420CD190883F21B1EBA02F07D1C0F3C21111
:20516C00042903D100F07F00834201D000207047012070471078802811D1508840F27F6172
:20518C0081420CD190883F21B1EBA02F07D1C0F3C211032903D100F07F00834201D00020FD
:2051AC007047012070471078802811D1508840F27F6181420CD190883F21B1EBA02F07D1FD
:2051CC00C0F3C211052903D100F07F00834201D0002070470120704708B5FFF75FFC094927
:2051EC00F9280BD1084601220A2102701020FFF7BFFD0F200C21FFF7BBFD08BD0022084677
:20520C00027008BDF418002010B50A4C2078002804BF4FF0FF3060650BD000F085FCE064BE
:20522C002E20FFF76DFA201D01F0E9F9FCF74AFC606D10BD3C24002001460A480278012917
:20524C0009D0022904D0032904BF002181817047803001F0D6B9062A02D1803001F0CFB945
:20526C007047C046F818002010B5401E0C460DD0401E09D0801E05D0001F01D0FFF7BCF99E
:20528C00052004E0002002E0042000E00220226821469047002010BD38B5094CE8210020B1
:2052AC00218040F61432A4F8FC0B04F1E8010A80044D6961FEF7D2F8A8616C6138BDC0460F
:2052CC00080200202C2300200A4A10B512680C464FF47A710023A1FB0001FCF783F80029BF
:2052EC0008BFB0F1004F2EBF6FF002002060002010BDC046C86A000010B501F063FA01F0F4
:20530C0071FA032001F0DAF906481030006830B1034C204600F0BAFF204600F0B4FF10BD24
:20532C0091620000A401002098B517460A46011C14BF002F032009D0064C8A600448CF60DD
:20534C0022680B61801801F0B5F9002098BDC046B4240020B46A0000094838B50068EFF3FB
:20536C00118580F31188074CA41D2088012803D1FEF733FB0020208085F3118838BDC046D7
:20538C00C46A0000B424002020280FD341F29830C5F2000000684FF2000CC0F23F0C010349
:2053AC008A0D0CEA010091050843704748F20000C4F23F00704701460888401E0ED0C01EE4
:2053CC0009D00C3804D010380BD18878FAF730BE8878FEF74BBE887800F0D2BA8878FFF75D
:2053EC002BBF70477FB50646082014460D46ADF800000920ADF80200684600F062FBBDF886
:20540C0004103180BDF8061029800299216000907FBD7FB50646082014460D46ADF8000065
:20542C000920ADF80200684600F04BFBBDF804103180BDF8061029800299216000907FBDD6
:20544C0098B5044600F0F8FC2168002908BF002709D00F4657F80C2C2260002347F80C3C44
:20546C00FF2401F8024C00F0A5FE384698BD70B515460C46064600F035FB011C04D12846B2
:20548C0000F0CEFD002070BD8D60304601F00EF914B1204601F05EF9012070BD1078911DA6
:2054AC00802810D1508840F27F6383420BD19088032818BF042806D1097831F0100014BF28
:2054CC001129012000D00020704745F2280041F20C31C4F20900C5F20001826891F90010F4
:2054EC000068A0F540704143091142F31000401A803000127047000010B5044600F09CFCA6
:20550C00074934F8042C6FF3DF3224F8042C4A680860241F944238BF4C6000F04BFE10BD38
:20552C003C2300200EB50820ADF800000420ADF802000648007880000190684600F0C1FA55
:20554C00002814BF002002980EBDC046941C00200EB50820ADF800000420ADF80200064840
:20556C00007880000190684600F0ABFA002814BF002002980EBDC046941C002038B50C46BE
:20558C00054600F059FC002144F80C1C296811B92C6006E0114651F80C2C002AFAD141F817
:2055AC000C4C00F007FE38BD10B5044660680C3080B2FDF753FF50B1A18800230181FF2222
:2055CC00036000F10C0182721846A16010BD6FF0030010BD38B50546FFF766FC041C0DD181
:2055EC00A8886946FFF746FC28B1A86800F024FD6FF0050038BDBDF80000A880204638BDFD
:20560C0038B5054600F018FC074C0322014654F80C0F18B1A84202D0521EF8D100240846EC
:20562C0000F0C8FD204638BD4023002000B5ADF1140DADF8040003910822ADF80020ADF886
:20564C0002201020ADF8060002208DF80800684600F037FA05B000BD38B500F039FF00211B
:20566C00002808BF012142F20800C4F20900046845685FEA010E01D000F030FF200440EA63
:20568C00154038BD38B5094B1C6802F0FF05AC420AD902F0FF0403EB84031B6E984203D187
:2056AC0008461146FDF706FA38BDC0468816002010B50C46ADF1180D02900821ADF8001042
:2056CC0019216846ADF802104FF0FF31019100F0F8F90499216006B010BD80B5107802AF2E
:2056EC0080280DD1508840F27F61814208D19088834205D138789179884208BF012000D0A3
:20570C00002080BD10B5FFF70DFF064C606138B100F01AFA044A204606211830FFF7ECF85C
:20572C0010BDC046C4230020146A000010B50C2000F03AFA041C0AD00121042200F079FE47
:20574C000348A06000F040FA2146FFF76FFF10BD746A000070B515460E46044600F0AEF89E
:20576C0048B94FF6FF70314600F0A8F8002808BF112002D004808570002070BD70B141F255
:20578C007430C5F2000001684FF6FC4CC0F2FC0C01F07C420CEA0100104370470020C6F666
:2057AC008800704710B5FFF7D3FE064CA06038B100F0CAF9044A204608210C30FFF79CF881
:2057CC0010BDC046A02200203C6A000010B5084C207806280AD1FCF72FFB04F1800000F026
:2057EC000EFFFFF711FD6062FDF76CFA10BDC046F8180020084A0021032002F1140343F892
:20580C000C1F401E9960FAD144320620401E22F80C1BFBD100F040BC2C23002098B50F462B
:20582C00044600F009FB57B13A4600E00A4652F80C1C0029FAD1216842F80C1C276000F09E
:20584C00B9FC98BD0EB50820ADF800000120ADF80200684600F035F90349BDF80400C880C1
:20586C00029888610EBDC046F81800200EB50820ADF800000120ADF80200684600F021F988
:20588C000349BDF804000882029888620EBDC046941C0020084B10B51C688C4204D903EB13
:2058AC0081031B6E984201D0022010BD0846114600F08AFA002010BD8816002003460846DA
:2058CC000749097849B1021F084632F8041F8B4208BF101C02D0401EF7D100207047C046A0
:2058EC00941C002010B50E284FF0010403D00649085C28B105E0204600F01CF8012800D0E6
:20590C000024204610BDC046E021002008B5283090E80C0005A003C8FBF764FD002908BFB1
:20592C00B0F1FF3F88BF4FF0FF3008BD00000000907E000001464AF200000429C4F20C0082
:20594C0005D134214FF0C0421D23FEF7EBBD34214FF080521C23FEF7E5BD38B505460A2054
:20596C0000F022F9041C09D00121152200F061FD258100F029F92146FFF758FE38BD000010
:20598C00014607480278012904D0022907D1A43000F037BE062A02D1A43000F030BE7047C5
:2059AC00F818002038B50D46044600F01DF902460448016822B1148095704068FFF757FDC0
:2059CC0038BDC046101900200EB5ADF806005021ADF8001068460021ADF8021000F071F804
:2059EC00002814BFFF209DF808000EBD0EB50820ADF800002020ADF802001020ADF80400C9
:205A0C00684600F05EF8002814BF002002980EBD074808B51030006828B1034800F036FC0C
:205A2C00024800F030FC08BD755C000035610000A4010020074810B51030006830B1044C16
:205A4C00204600F023FC204600F01DFC10BDC04601050000A4010020074808B500F022FE9C
:205A6C00FFF7D6FF00F01AFE00F014FE00F00EFE00F008FE08BDC0460553000010B506481D
:205A8C00064900684C684068014601208847A06901466069884710BD8C010010E401002059
:205AAC0050B141F27030C5F200000068020400F47C01100C0843704747F28A60C0F2680015
:205ACC00704710B50446208800F0AEF838B1816811B12046884710BD6FF0010010BD4FF0B4
:205AEC00FF3010BD0EB50820ADF800000420ADF802000C2001906846FFF7E3FF002814BF05
:205B0C00002002980EBD000010B500F00DF8054C2065F420FEF7F4FD04F1280000F06FFDF1
:205B2C0010BDC0463C24002038B5F720FEF7A8FE0546F620FEF7A4FE0404F820FEF7A0FEBC
:205B4C0044EA0524204338BD01460648007840B14FF6FF73091F002221F8043F401E8A70D7
:205B6C00FAD17047941C002060B141F25031C5F2000108680968C0F3870001F0030140EA10
:205B8C0001207047D820704720280BD341F29830C5F200000068C10C01F44071C0F3845038
:205BAC0008437047002070470EB501900821ADF8001068460221ADF80210FFF782FF0028A7
:205BCC0014BF002002980EBD0EB50820ADF800001A20ADF802006846FFF773FF002814BFDF
:205BEC00FF20BDF804000EBD0EB50820ADF800000420ADF8020001906846FFF762FF0028DD
:205C0C0014BF002002980EBD08B54288292A28BF6FF0010004D203490C3151F82210884756
:205C2C0008BDC0460468000008B5FFF78BF9FF2808BF002004D0034B810001EBC00158181C
:205C4C0008BDC0467023002010B5044600F0C6FD002818BF002006D1204600F00FFD8468B4
:205C6C0000F0DEF9204610BD10B5064C206900F001FD0146A06800B9E160A068401CA060E3
:205C8C0010BDC046A40100200648026840680021120040184FEA104041EB02010904084365
:205CAC007047C0460820094010B50446E088FFF749F9FF2808BF4FF0FF3003D0E080204606
:205CCC00FDF70AFD10BD10B5044607E090FAA0F0B0FA80F0C1B22046FEF7D4F8606800283C
:205CEC00F4D110BD08B5FBF729FEFFF783FDFDF739FCFEF725FDFEF71DFE00F0B7FC0020A7
:205D0C0008BD38B50D460446FFF770FE002818BF6FF0040003D120462946FFF7C9FC38BD09
:205D2C0008B5FEF747FF044A1178814202DD1070FEF75CFF08BDC046C52300201CB5054B22
:205D4C001C682CB1009202461B230120A0471CBD00201CBDB427002010B504460448001D71
:205D6C0003681BB10A4601202146984710BDC046B427002010B5054C2078062805D1FFF7B3
:205D8C00CFFF2046A43000F03AFC10BDF81800200EB50820ADF800000A20ADF802004FF02C
:205DAC00FF3001906846FFF78CFE0EBD0EB50820ADF800000A20ADF802004FF0FF300190BE
:205DCC006846FFF77EFE0EBD002948BF0021044A02EB8000026861F3050202607047C046DC
:205DEC000010084005480E300078401E03D0401E03D100F079B8FEF7D9B97047941C0020AA
:205E0C0050B110F1040F08BF042006D010F1030F0CBF02200120704700207047054910B5DE
:205E2C000968EFF3118481F3118800F01BFC84F3118810BDC46A000010B500F0D3FC80B299
:205E4C0060F30F0400F082FC80B260F31F44204610BD1CB5044660686946FFF735FA20B9B7
:205E6C00009860602046FDF73BFB1CBD08B503200121FEF75AF8FFF7EFFB41F6D001C2F270
:205E8C000001086008BD10B51D23FFF773F9012420B91B23FFF76EF900B90024204610BDB8
:205EAC000278044900780A704978884201DDFEF79DBE7047C423002041F29420C5F2000008
:205ECC000068C0F302400228C8BF4FF0FF3070470449487818B90248086300F094BB7047FA
:205EEC0018190020941C002004480078062818BF072801D1FEF73ABB7047C046951C002033
:205F0C0038B50C460546FFF75FFEC2B21B2321462846FEF7E3FA38BD222807D341F28C3037
:205F2C00C5F200000068C0F30070704701207047222807D341F28C30C5F200000068C0F39F
:205F4C004070704701207047202807D341F29830C5F200000068C0F3015070470020704728
:205F6C00222807D341F28C30C5F200000068C0F3C06070470020704738B141F27C30C5F203
:205F8C0000000068C0F30D00704740F2FF307047222807D341F28C30C5F200000068C0F319
:205FAC004550704700207047044B03F108010A8810430880986900F0CDBBC046F81800204A
:205FCC0008B5044B820002EBC00298180268D268904708BDE069000008B5406810F07F4F0C
:205FEC0018BF6FF0020002D1FEF770FE002008BD08B5406810F07F4F18BF6FF0020002D104
:20600C00FEF77FFE002008BD0EB501900821ADF8001068460521ADF80210FFF752FD0EBD50
:20602C000EB501900821ADF8001068460521ADF80210FFF746FD0EBD0EB501900821ADF871
:20604C00001068460321ADF80210FFF73AFD0EBD0EB501900821ADF8001068460321ADF8FA
:20606C000210FFF72EFD0EBD0EB501900821ADF8001068460321ADF80210FFF722FD0EBD7B
:20608C000EB501900821ADF8001068460321ADF80210FFF716FD0EBD04480821A0F8441004
:2060AC000149C164FFF7F8B8155C00002C23002010B50446A088FDF7D1F90028A06014BFEF
:2060CC0000206FF0030010BD10B5044C00213C34204600F0C3FA204610BDC046F818002043
:2060EC00044B03F112010A8810430880986A00F031BBC046941C00200449B1F1FF3F07BF2A
:20610C000020011C0868091DFFF7ECBDFFFFFFFF30B502FB01F403FB00444FF00005E2FBCB
:20612C0000542146284630BD04498868401E886003D10869C96800F08DBA7047A401002091
:20614C00012814BF002040F2FF700249086000207047C04600000460044802684068002103
:20616C001200401841EB02017047C04608200940034804490068814201D0FCF75CB87047FA
:20618C0098CA01107047282038B141F28C30C5F200000068C0F3C14070470020704708B58B
:2061AC000820ADF800000C20ADF802006846FFF788FC08BD08B50090BDF8020000F0C2FA96
:2061CC00BDF8000000F0F6FA08BD08B5406820B1006800F0CFFA002008BD6FF0020008BDF7
:2061EC0010B50446FFF726FC032000F067FA204600F070FA10BD000003480249083001603C
:20620C007047C04667650000C4230020034808B5416809B10078884708BDC04624250020FC
:20622C000248034A1321FEF767BBC046B0200020286A0000034A00211170406880F8981031
:20624C007047C046F718002038B50546FEF7D8FA002400B1012400202C7138BD0146034809
:20626C000068C84000F001007047C046C020024008B5FEF797FD18B9FDF768FA162800DA4D
:20628C00FEE708BD70470349086070470149091F08607047C82700204FF0FF31421E12F8AD
:2062AC00010F491C0028FAD108467047812342EAC112037042F47C4282800023C37070474C
:2062CC0008B500F0C3F90248006800F0BBF908BD8401002000B50A21ADF12C0D684600F034
:2062EC00ADF90BB000BD0000024902680A604068486070471B200020024A00200821FEF769
:20630C00C9B8C046CB65000008B5FFF7D7FA002814BF8078002008BD0248014908607047AB
:20632C00A422002077650000024910B51EC980E81E0010BD5C6A000010B504466068FCF7B5
:20634C00A5FEA060002010BD02490968416000207047C046C86A00000246024808B590470F
:20636C0008BDC04604680000B0F5804F03D14FF48040FFF719BE704710B500F048F90024F1
:20638C0000B10124204610BD042808B502D10846FDF794FE002008BD10B5044600F0BCF8C0
:2063AC006060002010BD08B500F01CFA00F0CEF9002008BD08B500F03DF900F037F90020A2
:2063CC0008BD08B540680C38FFF796F8002008BD10B5044600F0C6F96060002010BD006807
:2063EC0001092CBF042000F00300704701461628A8BFA0F1200108467047D0F80320C31D60
:20640C0008461946FCF7F4BD08B5022004230090FFF763F908BD08B5142001230090FFF7D7
:20642C005CF908BD08B5122001230090FFF755F908BD82230370818082710023C370704771
:20644C00014A0621FEF726B8D7650000014A1021FEF72CBEE3650000014A1121FEF73FBE9D
:20646C00F565000001490320FEF7A0BABF6500000178014801707047A0220020014601F1D1
:20648C0008000979FFF768BC0178B02901D1FFF7F5BF704708B5014688684968884708BD8E
:2064AC0008B5406800F0BEF8002008BD08B5406800F0B4F8002008BD08B54068FFF71CF88B
:2064CC00002008BD08B5406800F044F9002008BDEFF3108072B6704700207047EFF31080BA
:2064EC0062B670470020704700281ABF0160002002207047D0F8032008460021FDF7B2B8D7
:20650C0008B506200090FFF7E8F808BD0148007D7047C046A4010020014800797047C0469A
:20652C00B424002001B9014900F074B8A001000008B5FCF765FAFFF71BFE08BD08B502688C
:20654C001269904708BD08B5FEF706FF002008BD01468888891DFEF78DBC01460420FFF7E0
:20656C0021BA01461020FFF71DBA01460120FFF719BA01462020FFF715BA4068483000F063
:20658C00E9B80320FEF746BD6FF0010070471420FCF764BF401EFDD170474FF0FF307047CA
:2065AC000122FDF7B1B90420FEF734BD3623FEF7C8BD0323FFF7A4BF0023FEF7C2BD082330
:2065CC00FEF7BFBD3123FEF7BCBD0623FEF7B9BD3023FEF7B6BD1023FEF7B3BD0A23FEF773
:2065EC00B0BD0723FEF7ADBD1123FEF7AABD0123FEF7D9BD0223FEF7D6BDFDF7FDBF00F00D
:20660C00BDB800F0B7B8FDF7E1BC00207047808A70470000DFF800F0F1C50110DFF800F01C
:20662C0085C20110DFF800F081C20110DFF800F043C20110DFF800F055C10110DFF800F049
:20664C000DC30110DFF800F021B30110DFF800F067BE0110DFF800F04DC20110DFF800F0F6
:20666C00F5B80110DFF800F021C10110DFF800F055C00110DFF800F049C20110DFF800F0FF
:20668C00A9C10110DFF800F009C30110DFF800F03DC20110DFF800F08DC20110DFF800F00A
:2066AC0095B70110DFF800F081C60110DFF800F0B5C10110DFF800F02DBF0110DFF800F079
:2066CC0045C00110DFF800F079AB0110DFF800F025B10110DFF800F0D1C70110DFF800F0B7
:2066EC0079B50110DFF800F0ADB50110DFF800F0F9BF0110DFF800F019AE0110DFF800F01F
:20670C00D9C10110DFF800F0EDB30110DFF800F085C10110DFF800F0E1C20110DFF800F0EA
:20672C0061C20110DFF800F0BDBE0110DFF800F00DA80110DFF800F0DDB20110DFF800F00B
:20674C0099B20110DFF800F019C20110DFF800F049C10110DFF800F041AC0110DFF800F0B0
